:060000000A128A11E42F30
:100CA6001E3480340A128A1159260800831603134B
:100CB6000F088F3960388F008F110F158F140F149E
:100CC60008007E088A007F08820064260A128A11BC
:100CD6008000840A04087D0603190034FF0A0319FC
:100CE600FE0A682E7108831203178D0070083F39BB
:100CF6008F00831603178C170C14812E831203178B
:100D06000C08F300720A84007308831380007208CB
:100D1600840000080E06C0390E0680000800003464
:100D26004134003442340034433400344434003413
:100D360045340034463400344734003448341E34D5
:100D460087341E3486341E3485341E3484341E346F
:100D560083341E3482341E3481347108831203179F
:100D66008D0070083F398F00F501F6017608803A4C
:100D7600FF0080307F02031DC22E08307502031863
:100D860008007508F30073077207F400740A8400FC
:100D960083130008831203178C007508F30073078A
:100DA6007207F4007408840000083F398E00831629
:100DB60003178C170C158B1FE42E831203130314D1
:100DC6008B135530831603178D00AA308D008C14B3
:100DD600EC2E831603170C118312031303188B17BB
:100DE6000130F3007308831203178D070130F507EE
:100DF6000318F60A0030F607B92E0A128A1155268C
:100E06000A128A11243084004E3083120313A00084
:100E16000408A1001030A2002008840083130008F3
:100E2600A300A00A2108840023088000A10AA20BBF
:100E36000F2F7C08CB007B08CA006B08BD006A0830
:100E4600BC006908BF006808BE006708C1006608E4
:100E5600C0006508C3006408C2006308C5006208D4
:100E6600C4006108C7006008C6005F08C9005E08C4
:100E7600C8004B08F1004A08F0002430A000200802
:100E8600F2000A128A11B0260A128A11831203137B
:100E96004B08F1004A08F0004C30A0002008F20090
:100EA6000A128A1175260A128A11831203134D0833
:100EB600A0002008B4003D08F1003C08F0004C30CA
:100EC600A0002008F2000A128A1175260A128A1159
:100ED600831203134D08A0002008B5003F08F10057
:100EE6003E08F0004C30A0002008F2000A128A11D9
:100EF60075260A128A11831203134D08A0002008D2
:100F0600B6004108F1004008F0004C30A00020086F
:100F1600F2000A128A1175260A128A118312031325
:100F26004D08A0002008B7004308F1004208F00071
:100F36004C30A0002008F2000A128A1175260A1207
:100F46008A11831203134D08A0002008B800450833
:100F5600F1004408F0004C30A0002008F2000A120C
:100F66008A1175260A128A11831203134D08A000EE
:100F76002008B9004708F1004608F0004C30A000F0
:100F86002008F2000A128A1175260A128A118312A3
:100F960003134D08A0002008BA004908F1004808CC
:100FA600F0004C30A0002008F2000A128A117526C3
:100FB6000A128A11831203134D08A0002008BB00F1
:100FC600E32F83136C30FD000630FE009230FF00E5
:100FD6004E3084000A128A1168260A128A110A12F1
:100FE6008A1153260A128A11FB000A128A11542604
:0A0FF600FC0083010A128A11002F8B
:04400E00F4ECFFFFD0
:00000001FF
